{
  "_format": "hh-sol-artifact-1",
  "contractName": "Totem",
  "sourceName": "contracts/Totem.sol",
  "abi": [
    {
      "inputs": [],
      "stateMutability": "nonpayable",
      "type": "constructor"
    },
    {
      "anonymous": false,
      "inputs": [
        {
          "indexed": true,
          "internalType": "uint256",
          "name": "challengeId",
          "type": "uint256"
        },
        {
          "indexed": true,
          "internalType": "uint256",
          "name": "courseId",
          "type": "uint256"
        },
        {
          "indexed": false,
          "internalType": "uint256",
          "name": "challengeReward",
          "type": "uint256"
        },
        {
          "indexed": false,
          "internalType": "string",
          "name": "name",
          "type": "string"
        },
        {
          "indexed": false,
          "internalType": "string",
          "name": "question",
          "type": "string"
        },
        {
          "indexed": false,
          "internalType": "string",
          "name": "uri",
          "type": "string"
        }
      ],
      "name": "ChallengeAdded",
      "type": "event"
    },
    {
      "anonymous": false,
      "inputs": [
        {
          "indexed": true,
          "internalType": "uint256",
          "name": "challengeId",
          "type": "uint256"
        },
        {
          "indexed": true,
          "internalType": "uint256",
          "name": "courseId",
          "type": "uint256"
        },
        {
          "indexed": true,
          "internalType": "address",
          "name": "studentAddress",
          "type": "address"
        },
        {
          "indexed": false,
          "internalType": "uint256",
          "name": "reward",
          "type": "uint256"
        }
      ],
      "name": "Claimed",
      "type": "event"
    },
    {
      "anonymous": false,
      "inputs": [
        {
          "indexed": false,
          "internalType": "string",
          "name": "name",
          "type": "string"
        },
        {
          "indexed": true,
          "internalType": "address",
          "name": "courseOwner",
          "type": "address"
        },
        {
          "indexed": false,
          "internalType": "uint256",
          "name": "totalStaked",
          "type": "uint256"
        },
        {
          "indexed": false,
          "internalType": "address",
          "name": "stakedTokenAddress",
          "type": "address"
        },
        {
          "indexed": true,
          "internalType": "uint256",
          "name": "courseId",
          "type": "uint256"
        }
      ],
      "name": "CourseAdded",
      "type": "event"
    },
    {
      "anonymous": false,
      "inputs": [
        {
          "indexed": true,
          "internalType": "uint256",
          "name": "courseId",
          "type": "uint256"
        },
        {
          "indexed": true,
          "internalType": "address",
          "name": "studentAddress",
          "type": "address"
        }
      ],
      "name": "StudentAdded",
      "type": "event"
    },
    {
      "anonymous": false,
      "inputs": [
        {
          "indexed": true,
          "internalType": "uint256",
          "name": "courseId",
          "type": "uint256"
        },
        {
          "indexed": true,
          "internalType": "uint256",
          "name": "challengeId",
          "type": "uint256"
        },
        {
          "indexed": false,
          "internalType": "string",
          "name": "answer",
          "type": "string"
        },
        {
          "indexed": true,
          "internalType": "address",
          "name": "studentAddress",
          "type": "address"
        }
      ],
      "name": "SubmittedChallenge",
      "type": "event"
    },
    {
      "anonymous": false,
      "inputs": [
        {
          "indexed": true,
          "internalType": "uint256",
          "name": "challengeId",
          "type": "uint256"
        },
        {
          "indexed": true,
          "internalType": "uint256",
          "name": "courseId",
          "type": "uint256"
        },
        {
          "indexed": false,
          "internalType": "uint256",
          "name": "score",
          "type": "uint256"
        },
        {
          "indexed": false,
          "internalType": "uint256",
          "name": "rewardAmount",
          "type": "uint256"
        },
        {
          "indexed": true,
          "internalType": "address",
          "name": "studentAddress",
          "type": "address"
        }
      ],
      "name": "ValidatedSubmit",
      "type": "event"
    },
    {
      "inputs": [
        {
          "internalType": "uint256",
          "name": "challengeId",
          "type": "uint256"
        },
        {
          "internalType": "uint256",
          "name": "courseId",
          "type": "uint256"
        }
      ],
      "name": "Claim",
      "outputs": [],
      "stateMutability": "nonpayable",
      "type": "function"
    },
    {
      "inputs": [
        {
          "internalType": "address",
          "name": "",
          "type": "address"
        },
        {
          "internalType": "bytes32",
          "name": "",
          "type": "bytes32"
        }
      ],
      "name": "accountBalances",
      "outputs": [
        {
          "internalType": "uint256",
          "name": "",
          "type": "uint256"
        }
      ],
      "stateMutability": "view",
      "type": "function"
    },
    {
      "inputs": [
        {
          "internalType": "uint256",
          "name": "courseId",
          "type": "uint256"
        },
        {
          "internalType": "uint256",
          "name": "challengeReward",
          "type": "uint256"
        },
        {
          "internalType": "string",
          "name": "name",
          "type": "string"
        },
        {
          "internalType": "string",
          "name": "question",
          "type": "string"
        },
        {
          "internalType": "string",
          "name": "uri",
          "type": "string"
        }
      ],
      "name": "addChallenge",
      "outputs": [],
      "stateMutability": "nonpayable",
      "type": "function"
    },
    {
      "inputs": [
        {
          "internalType": "string",
          "name": "name",
          "type": "string"
        },
        {
          "internalType": "address",
          "name": "ownerAddress",
          "type": "address"
        },
        {
          "internalType": "uint256",
          "name": "stakeAmount",
          "type": "uint256"
        },
        {
          "internalType": "address",
          "name": "tokenAddress",
          "type": "address"
        }
      ],
      "name": "addCourse",
      "outputs": [],
      "stateMutability": "nonpayable",
      "type": "function"
    },
    {
      "inputs": [
        {
          "internalType": "address",
          "name": "studentAddress",
          "type": "address"
        },
        {
          "internalType": "uint256",
          "name": "courseId",
          "type": "uint256"
        }
      ],
      "name": "addStudents",
      "outputs": [],
      "stateMutability": "nonpayable",
      "type": "function"
    },
    {
      "inputs": [
        {
          "internalType": "uint256",
          "name": "",
          "type": "uint256"
        }
      ],
      "name": "allCourses",
      "outputs": [
        {
          "internalType": "string",
          "name": "name",
          "type": "string"
        },
        {
          "internalType": "bool",
          "name": "isActive",
          "type": "bool"
        },
        {
          "internalType": "address",
          "name": "courseOwner",
          "type": "address"
        },
        {
          "internalType": "uint256",
          "name": "totalStaked",
          "type": "uint256"
        },
        {
          "internalType": "address",
          "name": "stakedTokenAddress",
          "type": "address"
        },
        {
          "internalType": "uint256",
          "name": "studentId",
          "type": "uint256"
        },
        {
          "internalType": "uint256",
          "name": "courseId",
          "type": "uint256"
        }
      ],
      "stateMutability": "view",
      "type": "function"
    },
    {
      "inputs": [
        {
          "internalType": "uint256",
          "name": "",
          "type": "uint256"
        }
      ],
      "name": "challengeCount",
      "outputs": [
        {
          "internalType": "uint256",
          "name": "",
          "type": "uint256"
        }
      ],
      "stateMutability": "view",
      "type": "function"
    },
    {
      "inputs": [],
      "name": "challengeCounter",
      "outputs": [
        {
          "internalType": "uint256",
          "name": "",
          "type": "uint256"
        }
      ],
      "stateMutability": "view",
      "type": "function"
    },
    {
      "inputs": [
        {
          "internalType": "uint256",
          "name": "",
          "type": "uint256"
        }
      ],
      "name": "courses",
      "outputs": [
        {
          "internalType": "string",
          "name": "name",
          "type": "string"
        },
        {
          "internalType": "bool",
          "name": "isActive",
          "type": "bool"
        },
        {
          "internalType": "address",
          "name": "courseOwner",
          "type": "address"
        },
        {
          "internalType": "uint256",
          "name": "totalStaked",
          "type": "uint256"
        },
        {
          "internalType": "address",
          "name": "stakedTokenAddress",
          "type": "address"
        },
        {
          "internalType": "uint256",
          "name": "studentId",
          "type": "uint256"
        },
        {
          "internalType": "uint256",
          "name": "courseId",
          "type": "uint256"
        }
      ],
      "stateMutability": "view",
      "type": "function"
    },
    {
      "inputs": [
        {
          "internalType": "uint256",
          "name": "amount",
          "type": "uint256"
        },
        {
          "internalType": "bytes32",
          "name": "symbol",
          "type": "bytes32"
        }
      ],
      "name": "depositTokens",
      "outputs": [],
      "stateMutability": "nonpayable",
      "type": "function"
    },
    {
      "inputs": [
        {
          "internalType": "uint256",
          "name": "courseId",
          "type": "uint256"
        },
        {
          "internalType": "uint256",
          "name": "challengeId",
          "type": "uint256"
        }
      ],
      "name": "getChallengeReward",
      "outputs": [
        {
          "internalType": "uint256",
          "name": "reward",
          "type": "uint256"
        }
      ],
      "stateMutability": "view",
      "type": "function"
    },
    {
      "inputs": [
        {
          "internalType": "uint256",
          "name": "courseId",
          "type": "uint256"
        },
        {
          "internalType": "uint256",
          "name": "challengeId",
          "type": "uint256"
        },
        {
          "internalType": "address",
          "name": "studentAddress",
          "type": "address"
        }
      ],
      "name": "getStudentReward",
      "outputs": [
        {
          "internalType": "uint256",
          "name": "reward",
          "type": "uint256"
        }
      ],
      "stateMutability": "view",
      "type": "function"
    },
    {
      "inputs": [],
      "name": "status",
      "outputs": [
        {
          "internalType": "enum Totem.Status",
          "name": "",
          "type": "uint8"
        }
      ],
      "stateMutability": "view",
      "type": "function"
    },
    {
      "inputs": [
        {
          "internalType": "string",
          "name": "answer",
          "type": "string"
        },
        {
          "internalType": "uint256",
          "name": "courseId",
          "type": "uint256"
        },
        {
          "internalType": "uint256",
          "name": "challengeId",
          "type": "uint256"
        }
      ],
      "name": "submitChallenge",
      "outputs": [],
      "stateMutability": "nonpayable",
      "type": "function"
    },
    {
      "inputs": [
        {
          "internalType": "uint256",
          "name": "challengeId",
          "type": "uint256"
        },
        {
          "internalType": "uint256",
          "name": "courseId",
          "type": "uint256"
        },
        {
          "internalType": "uint256",
          "name": "score",
          "type": "uint256"
        },
        {
          "internalType": "address",
          "name": "studentAddress",
          "type": "address"
        }
      ],
      "name": "validateSubmit",
      "outputs": [],
      "stateMutability": "nonpayable",
      "type": "function"
    },
    {
      "inputs": [
        {
          "internalType": "bytes32",
          "name": "symbol",
          "type": "bytes32"
        },
        {
          "internalType": "address",
          "name": "tokenAddress",
          "type": "address"
        }
      ],
      "name": "whitelistTokens",
      "outputs": [],
      "stateMutability": "nonpayable",
      "type": "function"
    },
    {
      "inputs": [
        {
          "internalType": "bytes32",
          "name": "",
          "type": "bytes32"
        }
      ],
      "name": "whitelistedTokens",
      "outputs": [
        {
          "internalType": "address",
          "name": "",
          "type": "address"
        }
      ],
      "stateMutability": "view",
      "type": "function"
    },
    {
      "inputs": [
        {
          "internalType": "uint256",
          "name": "amount",
          "type": "uint256"
        },
        {
          "internalType": "bytes32",
          "name": "symbol",
          "type": "bytes32"
        }
      ],
      "name": "withdrawTokens",
      "outputs": [],
      "stateMutability": "nonpayable",
      "type": "function"
    }
  ],
  "bytecode": "0x608060405234801561001057600080fd5b50600160008190555033600860016101000a81548173ffffffffffffffffffffffffffffffffffffffff021916908373ffffffffffffffffffffffffffffffffffffffff1602179055506126c0806100696000396000f3fe608060405234801561001057600080fd5b50600436106101165760003560e01c8063a157cded116100a2578063d15b223e11610071578063d15b223e1461030d578063d7b011dc14610329578063e64fe36614610345578063f1c12be014610375578063f7fed02c1461039157610116565b8063a157cded1461026f578063aa3d9a151461028b578063c49cf7f3146102bb578063cb88dc79146102d757610116565b806335713e44116100e957806335713e44146101b557806384a70c72146101e55780638f97994b1461020157806396f979d21461021d5780639ce5db261461025357610116565b8063022e3d291461011b5780631996afab146101375780631f42258714610167578063200d2ed214610197575b600080fd5b610135600480360381019061013091906118af565b6103af565b005b610151600480360381019061014c919061194d565b61068f565b60405161015e91906119af565b60405180910390f35b610181600480360381019061017c91906119ca565b610702565b60405161018e91906119af565b60405180910390f35b61019f61071a565b6040516101ac9190611a6e565b60405180910390f35b6101cf60048036038101906101ca91906118af565b61072d565b6040516101dc91906119af565b60405180910390f35b6101ff60048036038101906101fa9190611a89565b610762565b005b61021b60048036038101906102169190611aff565b6108ba565b005b610237600480360381019061023291906119ca565b610a12565b60405161024a9796959493929190611c02565b60405180910390f35b61026d60048036038101906102689190611c78565b610b29565b005b61028960048036038101906102849190611e14565b610e31565b005b6102a560048036038101906102a09190611ee3565b610f66565b6040516102b29190611f10565b60405180910390f35b6102d560048036038101906102d09190611f2b565b610f99565b005b6102f160048036038101906102ec91906119ca565b611211565b6040516103049796959493929190611c02565b60405180910390f35b61032760048036038101906103229190611aff565b611338565b005b610343600480360381019061033e9190611f9a565b611466565b005b61035f600480360381019061035a9190611fda565b61154c565b60405161036c91906119af565b60405180910390f35b61038f600480360381019061038a919061201a565b611571565b005b6103996117bc565b6040516103a691906119af565b60405180910390f35b600260038111156103c3576103c26119f7565b5b60046000838152602001908152602001600020600501600084815260200190815260200160002060000160003373ffffffffffffffffffffffffffffffffffffffff1673ffffffffffffffffffffffffffffffffffffffff16815260200190815260200160002060009054906101000a900460ff16600381111561044a576104496119f7565b5b1461045457600080fd5b600360046000838152602001908152602001600020600501600084815260200190815260200160002060000160003373ffffffffffffffffffffffffffffffffffffffff1673ffffffffffffffffffffffffffffffffffffffff16815260200190815260200160002060006101000a81548160ff021916908360038111156104df576104de6119f7565b5b021790555060046000600954815260200190815260200160002060030160009054906101000a900473ffffffffffffffffffffffffffffffffffffffff1673ffffffffffffffffffffffffffffffffffffffff1663a9059cbb3360046000858152602001908152602001600020600501600086815260200190815260200160002060010160003373ffffffffffffffffffffffffffffffffffffffff1673ffffffffffffffffffffffffffffffffffffffff168152602001908152602001600020546040518363ffffffff1660e01b81526004016105be92919061209d565b602060405180830381600087803b1580156105d857600080fd5b505af11580156105ec573d6000803e3d6000fd5b505050506040513d601f19601f8201168201806040525081019061061091906120f2565b503373ffffffffffffffffffffffffffffffffffffffff1681837fb94bf7f9302edf52a596286915a69b4b0685574cffdedd0712e3c62f2550f0ba6004600086815260200190815260200160002060050160008781526020019081526020016000206002015460405161068391906119af565b60405180910390a45050565b600060046000858152602001908152602001600020600501600084815260200190815260200160002060010160008373ffffffffffffffffffffffffffffffffffffffff1673ffffffffffffffffffffffffffffffffffffffff1681526020019081526020016000205490509392505050565b60016020528060005260406000206000915090505481565b600860009054906101000a900460ff1681565b600060046000848152602001908152602001600020600501600083815260200190815260200160002060020154905092915050565b3373ffffffffffffffffffffffffffffffffffffffff166004600083815260200190815260200160002060010160019054906101000a900473ffffffffffffffffffffffffffffffffffffffff1673ffffffffffffffffffffffffffffffffffffffff1614610806576040517f08c379a00000000000000000000000000000000000000000000000000000000081526004016107fd90612191565b60405180910390fd5b60016004600083815260200190815260200160002060040160008473ffffffffffffffffffffffffffffffffffffffff1673ffffffffffffffffffffffffffffffffffffffff16815260200190815260200160002060006101000a81548160ff0219169083151502179055508173ffffffffffffffffffffffffffffffffffffffff16817fe1cacc7bf04bbbc4acbefdd919648dda3da5378dfdd304a8bf8479ac92cb77e060405160405180910390a35050565b81600660003373ffffffffffffffffffffffffffffffffffffffff1673ffffffffffffffffffffffffffffffffffffffff168152602001908152602001600020600083815260200190815260200160002054101561094d576040517f08c379a0000000000000000000000000000000000000000000000000000000008152600401610944906121fd565b60405180910390fd5b6005600082815260200190815260200160002060009054906101000a900473ffffffffffffffffffffffffffffffffffffffff1673ffffffffffffffffffffffffffffffffffffffff1663a9059cbb33846040518363ffffffff1660e01b81526004016109bb92919061209d565b602060405180830381600087803b1580156109d557600080fd5b505af11580156109e9573d6000803e3d6000fd5b505050506040513d601f19601f82011682018060405250810190610a0d91906120f2565b505050565b6004602052806000526040600020600091509050806000018054610a359061224c565b80601f0160208091040260200160405190810160405280929190818152602001828054610a619061224c565b8015610aae5780601f10610a8357610100808354040283529160200191610aae565b820191906000526020600020905b815481529060010190602001808311610a9157829003601f168201915b5050505050908060010160009054906101000a900460ff16908060010160019054906101000a900473ffffffffffffffffffffffffffffffffffffffff16908060020154908060030160009054906101000a900473ffffffffffffffffffffffffffffffffffffffff16908060060154908060070154905087565b3373ffffffffffffffffffffffffffffffffffffffff166004600085815260200190815260200160002060010160019054906101000a900473ffffffffffffffffffffffffffffffffffffffff1673ffffffffffffffffffffffffffffffffffffffff1614610bcd576040517f08c379a0000000000000000000000000000000000000000000000000000000008152600401610bc490612191565b60405180910390fd5b60016003811115610be157610be06119f7565b5b60046000858152602001908152602001600020600501600086815260200190815260200160002060000160008373ffffffffffffffffffffffffffffffffffffffff1673ffffffffffffffffffffffffffffffffffffffff16815260200190815260200160002060009054906101000a900460ff166003811115610c6857610c676119f7565b5b14610c7257600080fd5b600260046000858152602001908152602001600020600501600086815260200190815260200160002060000160008373ffffffffffffffffffffffffffffffffffffffff1673ffffffffffffffffffffffffffffffffffffffff16815260200190815260200160002060006101000a81548160ff02191690836003811115610cfd57610cfc6119f7565b5b021790555060646004600085815260200190815260200160002060050160008681526020019081526020016000206002015483610d3a91906122ad565b610d449190612336565b60046000858152602001908152602001600020600501600086815260200190815260200160002060010160008373ffffffffffffffffffffffffffffffffffffffff1673ffffffffffffffffffffffffffffffffffffffff168152602001908152602001600020819055508073ffffffffffffffffffffffffffffffffffffffff1683857f08454f250bc1189f1470fbd6a791d9c796d075494bbce876046f1b682421c66e856004600089815260200190815260200160002060050160008a815260200190815260200160002060020154604051610e23929190612367565b60405180910390a450505050565b3373ffffffffffffffffffffffffffffffffffffffff166004600087815260200190815260200160002060010160019054906101000a900473ffffffffffffffffffffffffffffffffffffffff1673ffffffffffffffffffffffffffffffffffffffff1614610ed5576040517f08c379a0000000000000000000000000000000000000000000000000000000008152600401610ecc90612191565b60405180910390fd5b60076000815480929190610ee890612390565b919050555083600460008781526020019081526020016000206005016000600754815260200190815260200160002060020181905550846007547ffd088848560044343f4f476c0bac61107a5bce356a3e77ef09bb546fd6f7959386868686604051610f5794939291906123d9565b60405180910390a35050505050565b60056020528060005260406000206000915054906101000a900473ffffffffffffffffffffffffffffffffffffffff1681565b60016004600084815260200190815260200160002060040160003373ffffffffffffffffffffffffffffffffffffffff1673ffffffffffffffffffffffffffffffffffffffff16815260200190815260200160002060006101000a81548160ff0219169083151502179055611043576040517f08c379a000000000000000000000000000000000000000000000000000000000815260040161103a906124a5565b60405180910390fd5b600060046000848152602001908152602001600020600501600083815260200190815260200160002060020154116110b0576040517f08c379a00000000000000000000000000000000000000000000000000000000081526004016110a790612511565b60405180910390fd5b600160046000848152602001908152602001600020600501600083815260200190815260200160002060000160003373ffffffffffffffffffffffffffffffffffffffff1673ffffffffffffffffffffffffffffffffffffffff16815260200190815260200160002060006101000a81548160ff0219169083600381111561113b5761113a6119f7565b5b02179055508260046000848152602001908152602001600020600501600083815260200190815260200160002060040160003373ffffffffffffffffffffffffffffffffffffffff1673ffffffffffffffffffffffffffffffffffffffff16815260200190815260200160002090805190602001906111bb9291906117c2565b503373ffffffffffffffffffffffffffffffffffffffff1681837f0652388f4a0089803cd083e5f18ba025e805a427fc7522abed8ab6b52d36618e866040516112049190612531565b60405180910390a4505050565b600b818154811061122157600080fd5b90600052602060002090600802016000915090508060000180546112449061224c565b80601f01602080910402602001604051908101604052809291908181526020018280546112709061224c565b80156112bd5780601f10611292576101008083540402835291602001916112bd565b820191906000526020600020905b8154815290600101906020018083116112a057829003601f168201915b5050505050908060010160009054906101000a900460ff16908060010160019054906101000a900473ffffffffffffffffffffffffffffffffffffffff16908060020154908060030160009054906101000a900473ffffffffffffffffffffffffffffffffffffffff16908060060154908060070154905087565b81600660003373ffffffffffffffffffffffffffffffffffffffff1673ffffffffffffffffffffffffffffffffffffffff168152602001908152602001600020600083815260200190815260200160002060008282546113989190612553565b925050819055506005600082815260200190815260200160002060009054906101000a900473ffffffffffffffffffffffffffffffffffffffff1673ffffffffffffffffffffffffffffffffffffffff166323b872dd3330856040518463ffffffff1660e01b815260040161140f939291906125a9565b602060405180830381600087803b15801561142957600080fd5b505af115801561143d573d6000803e3d6000fd5b505050506040513d601f19601f8201168201806040525081019061146191906120f2565b505050565b600860019054906101000a900473ffffffffffffffffffffffffffffffffffffffff1673ffffffffffffffffffffffffffffffffffffffff163373ffffffffffffffffffffffffffffffffffffffff16146114f6576040517f08c379a00000000000000000000000000000000000000000000000000000000081526004016114ed9061262c565b60405180910390fd5b806005600084815260200190815260200160002060006101000a81548173ffffffffffffffffffffffffffffffffffffffff021916908373ffffffffffffffffffffffffffffffffffffffff1602179055505050565b6006602052816000526040600020602052806000526040600020600091509150505481565b8073ffffffffffffffffffffffffffffffffffffffff166323b872dd3330856040518463ffffffff1660e01b81526004016115ae939291906125a9565b602060405180830381600087803b1580156115c857600080fd5b505af11580156115dc573d6000803e3d6000fd5b505050506040513d601f19601f8201168201806040525081019061160091906120f2565b506009600081548092919061161490612390565b91905055508360046000600954815260200190815260200160002060000190805190602001906116459291906117c2565b50600160046000600954815260200190815260200160002060010160006101000a81548160ff0219169083151502179055508260046000600954815260200190815260200160002060010160016101000a81548173ffffffffffffffffffffffffffffffffffffffff021916908373ffffffffffffffffffffffffffffffffffffffff16021790555081600460006009548152602001908152602001600020600201819055508060046000600954815260200190815260200160002060030160006101000a81548173ffffffffffffffffffffffffffffffffffffffff021916908373ffffffffffffffffffffffffffffffffffffffff160217905550600954600460006009548152602001908152602001600020600701819055506009548373ffffffffffffffffffffffffffffffffffffffff167f81492c82ff72a147087ca6d664f3578619a358629830f78af1a7decebe13b5438685856040516117ae9392919061264c565b60405180910390a350505050565b60075481565b8280546117ce9061224c565b90600052602060002090601f0160209004810192826117f05760008555611837565b82601f1061180957805160ff1916838001178555611837565b82800160010185558215611837579182015b8281111561183657825182559160200191906001019061181b565b5b5090506118449190611848565b5090565b5b80821115611861576000816000905550600101611849565b5090565b6000604051905090565b600080fd5b600080fd5b6000819050919050565b61188c81611879565b811461189757600080fd5b50565b6000813590506118a981611883565b92915050565b600080604083850312156118c6576118c561186f565b5b60006118d48582860161189a565b92505060206118e58582860161189a565b9150509250929050565b600073ffffffffffffffffffffffffffffffffffffffff82169050919050565b600061191a826118ef565b9050919050565b61192a8161190f565b811461193557600080fd5b50565b60008135905061194781611921565b92915050565b6000806000606084860312156119665761196561186f565b5b60006119748682870161189a565b93505060206119858682870161189a565b925050604061199686828701611938565b9150509250925092565b6119a981611879565b82525050565b60006020820190506119c460008301846119a0565b92915050565b6000602082840312156119e0576119df61186f565b5b60006119ee8482850161189a565b91505092915050565b7f4e487b7100000000000000000000000000000000000000000000000000000000600052602160045260246000fd5b60048110611a3757611a366119f7565b5b50565b6000819050611a4882611a26565b919050565b6000611a5882611a3a565b9050919050565b611a6881611a4d565b82525050565b6000602082019050611a836000830184611a5f565b92915050565b60008060408385031215611aa057611a9f61186f565b5b6000611aae85828601611938565b9250506020611abf8582860161189a565b9150509250929050565b6000819050919050565b611adc81611ac9565b8114611ae757600080fd5b50565b600081359050611af981611ad3565b92915050565b60008060408385031215611b1657611b1561186f565b5b6000611b248582860161189a565b9250506020611b3585828601611aea565b9150509250929050565b600081519050919050565b600082825260208201905092915050565b60005b83811015611b79578082015181840152602081019050611b5e565b83811115611b88576000848401525b50505050565b6000601f19601f8301169050919050565b6000611baa82611b3f565b611bb48185611b4a565b9350611bc4818560208601611b5b565b611bcd81611b8e565b840191505092915050565b60008115159050919050565b611bed81611bd8565b82525050565b611bfc8161190f565b82525050565b600060e0820190508181036000830152611c1c818a611b9f565b9050611c2b6020830189611be4565b611c386040830188611bf3565b611c4560608301876119a0565b611c526080830186611bf3565b611c5f60a08301856119a0565b611c6c60c08301846119a0565b98975050505050505050565b60008060008060808587031215611c9257611c9161186f565b5b6000611ca08782880161189a565b9450506020611cb18782880161189a565b9350506040611cc28782880161189a565b9250506060611cd387828801611938565b91505092959194509250565b600080fd5b600080fd5b7f4e487b7100000000000000000000000000000000000000000000000000000000600052604160045260246000fd5b611d2182611b8e565b810181811067ffffffffffffffff82111715611d4057611d3f611ce9565b5b80604052505050565b6000611d53611865565b9050611d5f8282611d18565b919050565b600067ffffffffffffffff821115611d7f57611d7e611ce9565b5b611d8882611b8e565b9050602081019050919050565b82818337600083830152505050565b6000611db7611db284611d64565b611d49565b905082815260208101848484011115611dd357611dd2611ce4565b5b611dde848285611d95565b509392505050565b600082601f830112611dfb57611dfa611cdf565b5b8135611e0b848260208601611da4565b91505092915050565b600080600080600060a08688031215611e3057611e2f61186f565b5b6000611e3e8882890161189a565b9550506020611e4f8882890161189a565b945050604086013567ffffffffffffffff811115611e7057611e6f611874565b5b611e7c88828901611de6565b935050606086013567ffffffffffffffff811115611e9d57611e9c611874565b5b611ea988828901611de6565b925050608086013567ffffffffffffffff811115611eca57611ec9611874565b5b611ed688828901611de6565b9150509295509295909350565b600060208284031215611ef957611ef861186f565b5b6000611f0784828501611aea565b91505092915050565b6000602082019050611f256000830184611bf3565b92915050565b600080600060608486031215611f4457611f4361186f565b5b600084013567ffffffffffffffff811115611f6257611f61611874565b5b611f6e86828701611de6565b9350506020611f7f8682870161189a565b9250506040611f908682870161189a565b9150509250925092565b60008060408385031215611fb157611fb061186f565b5b6000611fbf85828601611aea565b9250506020611fd085828601611938565b9150509250929050565b60008060408385031215611ff157611ff061186f565b5b6000611fff85828601611938565b925050602061201085828601611aea565b9150509250929050565b600080600080608085870312156120345761203361186f565b5b600085013567ffffffffffffffff81111561205257612051611874565b5b61205e87828801611de6565b945050602061206f87828801611938565b93505060406120808782880161189a565b925050606061209187828801611938565b91505092959194509250565b60006040820190506120b26000830185611bf3565b6120bf60208301846119a0565b9392505050565b6120cf81611bd8565b81146120da57600080fd5b50565b6000815190506120ec816120c6565b92915050565b6000602082840312156121085761210761186f565b5b6000612116848285016120dd565b91505092915050565b7f596f75277265206e6f74207468652070726f666573736f72206f66207468697360008201527f20436f7572736500000000000000000000000000000000000000000000000000602082015250565b600061217b602783611b4a565b91506121868261211f565b604082019050919050565b600060208201905081810360008301526121aa8161216e565b9050919050565b7f496e73756666696369656e742066756e64730000000000000000000000000000600082015250565b60006121e7601283611b4a565b91506121f2826121b1565b602082019050919050565b60006020820190508181036000830152612216816121da565b9050919050565b7f4e487b7100000000000000000000000000000000000000000000000000000000600052602260045260246000fd5b6000600282049050600182168061226457607f821691505b602082108114156122785761227761221d565b5b50919050565b7f4e487b7100000000000000000000000000000000000000000000000000000000600052601160045260246000fd5b60006122b882611879565b91506122c383611879565b9250817fffffffffffffffffffffffffffffffffffffffffffffffffffffffffffffffff04831182151516156122fc576122fb61227e565b5b828202905092915050565b7f4e487b7100000000000000000000000000000000000000000000000000000000600052601260045260246000fd5b600061234182611879565b915061234c83611879565b92508261235c5761235b612307565b5b828204905092915050565b600060408201905061237c60008301856119a0565b61238960208301846119a0565b9392505050565b600061239b82611879565b91507fffffffffffffffffffffffffffffffffffffffffffffffffffffffffffffffff8214156123ce576123cd61227e565b5b600182019050919050565b60006080820190506123ee60008301876119a0565b81810360208301526124008186611b9f565b905081810360408301526124148185611b9f565b905081810360608301526124288184611b9f565b905095945050505050565b7f41646472657373206e6f7420612073747564656e74206f66207468697320436f60008201527f7572736500000000000000000000000000000000000000000000000000000000602082015250565b600061248f602483611b4a565b915061249a82612433565b604082019050919050565b600060208201905081810360008301526124be81612482565b9050919050565b7f4368616c6c656e676520646f65736e7420457869737400000000000000000000600082015250565b60006124fb601683611b4a565b9150612506826124c5565b602082019050919050565b6000602082019050818103600083015261252a816124ee565b9050919050565b6000602082019050818103600083015261254b8184611b9f565b905092915050565b600061255e82611879565b915061256983611879565b9250827fffffffffffffffffffffffffffffffffffffffffffffffffffffffffffffffff0382111561259e5761259d61227e565b5b828201905092915050565b60006060820190506125be6000830186611bf3565b6125cb6020830185611bf3565b6125d860408301846119a0565b949350505050565b7f546869732066756e6374696f6e206973206e6f74207075626c69630000000000600082015250565b6000612616601b83611b4a565b9150612621826125e0565b602082019050919050565b6000602082019050818103600083015261264581612609565b9050919050565b600060608201905081810360008301526126668186611b9f565b905061267560208301856119a0565b6126826040830184611bf3565b94935050505056fea2646970667358221220c617c6edea7441e2e49daba236f223a814619a2d60d3b824db9bc8a6c979c11764736f6c63430008090033",
  "linkReferences": {},
  "deployedLinkReferences": {}
}