{
  "_format": "hh-sol-artifact-1",
  "contractName": "Totem",
  "sourceName": "contracts/Totem.sol",
  "abi": [
    {
      "inputs": [],
      "stateMutability": "nonpayable",
      "type": "constructor"
    },
    {
      "anonymous": false,
      "inputs": [
        {
          "indexed": true,
          "internalType": "uint256",
          "name": "challengeId",
          "type": "uint256"
        },
        {
          "indexed": true,
          "internalType": "uint256",
          "name": "courseId",
          "type": "uint256"
        },
        {
          "indexed": false,
          "internalType": "uint256",
          "name": "challengeReward",
          "type": "uint256"
        }
      ],
      "name": "ChallengeAdded",
      "type": "event"
    },
    {
      "anonymous": false,
      "inputs": [
        {
          "indexed": true,
          "internalType": "uint256",
          "name": "challengeId",
          "type": "uint256"
        },
        {
          "indexed": true,
          "internalType": "uint256",
          "name": "courseId",
          "type": "uint256"
        },
        {
          "indexed": true,
          "internalType": "address",
          "name": "studentAddress",
          "type": "address"
        },
        {
          "indexed": false,
          "internalType": "uint256",
          "name": "reward",
          "type": "uint256"
        }
      ],
      "name": "Claimed",
      "type": "event"
    },
    {
      "anonymous": false,
      "inputs": [
        {
          "indexed": false,
          "internalType": "string",
          "name": "name",
          "type": "string"
        },
        {
          "indexed": true,
          "internalType": "address",
          "name": "courseOwner",
          "type": "address"
        },
        {
          "indexed": false,
          "internalType": "uint256",
          "name": "totalStaked",
          "type": "uint256"
        },
        {
          "indexed": false,
          "internalType": "address",
          "name": "stakedTokenAddress",
          "type": "address"
        },
        {
          "indexed": true,
          "internalType": "uint256",
          "name": "courseId",
          "type": "uint256"
        }
      ],
      "name": "CourseAdded",
      "type": "event"
    },
    {
      "anonymous": false,
      "inputs": [
        {
          "indexed": true,
          "internalType": "uint256",
          "name": "courseId",
          "type": "uint256"
        },
        {
          "indexed": true,
          "internalType": "address",
          "name": "studentAddress",
          "type": "address"
        }
      ],
      "name": "StudentAdded",
      "type": "event"
    },
    {
      "anonymous": false,
      "inputs": [
        {
          "indexed": true,
          "internalType": "uint256",
          "name": "courseId",
          "type": "uint256"
        },
        {
          "indexed": true,
          "internalType": "uint256",
          "name": "challengeId",
          "type": "uint256"
        },
        {
          "indexed": false,
          "internalType": "string",
          "name": "answer",
          "type": "string"
        },
        {
          "indexed": true,
          "internalType": "address",
          "name": "studentAddress",
          "type": "address"
        }
      ],
      "name": "SubmittedChallenge",
      "type": "event"
    },
    {
      "anonymous": false,
      "inputs": [
        {
          "indexed": true,
          "internalType": "uint256",
          "name": "challengeId",
          "type": "uint256"
        },
        {
          "indexed": true,
          "internalType": "uint256",
          "name": "courseId",
          "type": "uint256"
        },
        {
          "indexed": false,
          "internalType": "uint256",
          "name": "score",
          "type": "uint256"
        },
        {
          "indexed": false,
          "internalType": "uint256",
          "name": "rewardAmount",
          "type": "uint256"
        },
        {
          "indexed": true,
          "internalType": "address",
          "name": "studentAddress",
          "type": "address"
        }
      ],
      "name": "ValidatedSubmit",
      "type": "event"
    },
    {
      "inputs": [
        {
          "internalType": "uint256",
          "name": "challengeId",
          "type": "uint256"
        },
        {
          "internalType": "uint256",
          "name": "courseId",
          "type": "uint256"
        }
      ],
      "name": "Claim",
      "outputs": [],
      "stateMutability": "nonpayable",
      "type": "function"
    },
    {
      "inputs": [
        {
          "internalType": "address",
          "name": "",
          "type": "address"
        },
        {
          "internalType": "bytes32",
          "name": "",
          "type": "bytes32"
        }
      ],
      "name": "accountBalances",
      "outputs": [
        {
          "internalType": "uint256",
          "name": "",
          "type": "uint256"
        }
      ],
      "stateMutability": "view",
      "type": "function"
    },
    {
      "inputs": [
        {
          "internalType": "uint256",
          "name": "courseId",
          "type": "uint256"
        },
        {
          "internalType": "uint256",
          "name": "challengeReward",
          "type": "uint256"
        }
      ],
      "name": "addChallenge",
      "outputs": [],
      "stateMutability": "nonpayable",
      "type": "function"
    },
    {
      "inputs": [
        {
          "internalType": "string",
          "name": "name",
          "type": "string"
        },
        {
          "internalType": "address",
          "name": "ownerAddress",
          "type": "address"
        },
        {
          "internalType": "uint256",
          "name": "stakeAmount",
          "type": "uint256"
        },
        {
          "internalType": "address",
          "name": "tokenAddress",
          "type": "address"
        }
      ],
      "name": "addCourse",
      "outputs": [],
      "stateMutability": "nonpayable",
      "type": "function"
    },
    {
      "inputs": [
        {
          "internalType": "address",
          "name": "studentAddress",
          "type": "address"
        },
        {
          "internalType": "uint256",
          "name": "courseId",
          "type": "uint256"
        }
      ],
      "name": "addStudents",
      "outputs": [],
      "stateMutability": "nonpayable",
      "type": "function"
    },
    {
      "inputs": [
        {
          "internalType": "uint256",
          "name": "",
          "type": "uint256"
        }
      ],
      "name": "allCourses",
      "outputs": [
        {
          "internalType": "string",
          "name": "name",
          "type": "string"
        },
        {
          "internalType": "bool",
          "name": "isActive",
          "type": "bool"
        },
        {
          "internalType": "address",
          "name": "courseOwner",
          "type": "address"
        },
        {
          "internalType": "uint256",
          "name": "totalStaked",
          "type": "uint256"
        },
        {
          "internalType": "address",
          "name": "stakedTokenAddress",
          "type": "address"
        },
        {
          "internalType": "uint256",
          "name": "studentId",
          "type": "uint256"
        },
        {
          "internalType": "uint256",
          "name": "courseId",
          "type": "uint256"
        }
      ],
      "stateMutability": "view",
      "type": "function"
    },
    {
      "inputs": [
        {
          "internalType": "uint256",
          "name": "",
          "type": "uint256"
        }
      ],
      "name": "challengeCount",
      "outputs": [
        {
          "internalType": "uint256",
          "name": "",
          "type": "uint256"
        }
      ],
      "stateMutability": "view",
      "type": "function"
    },
    {
      "inputs": [
        {
          "internalType": "uint256",
          "name": "",
          "type": "uint256"
        }
      ],
      "name": "courses",
      "outputs": [
        {
          "internalType": "string",
          "name": "name",
          "type": "string"
        },
        {
          "internalType": "bool",
          "name": "isActive",
          "type": "bool"
        },
        {
          "internalType": "address",
          "name": "courseOwner",
          "type": "address"
        },
        {
          "internalType": "uint256",
          "name": "totalStaked",
          "type": "uint256"
        },
        {
          "internalType": "address",
          "name": "stakedTokenAddress",
          "type": "address"
        },
        {
          "internalType": "uint256",
          "name": "studentId",
          "type": "uint256"
        },
        {
          "internalType": "uint256",
          "name": "courseId",
          "type": "uint256"
        }
      ],
      "stateMutability": "view",
      "type": "function"
    },
    {
      "inputs": [
        {
          "internalType": "uint256",
          "name": "amount",
          "type": "uint256"
        },
        {
          "internalType": "bytes32",
          "name": "symbol",
          "type": "bytes32"
        }
      ],
      "name": "depositTokens",
      "outputs": [],
      "stateMutability": "nonpayable",
      "type": "function"
    },
    {
      "inputs": [
        {
          "internalType": "uint256",
          "name": "courseId",
          "type": "uint256"
        },
        {
          "internalType": "uint256",
          "name": "challengeId",
          "type": "uint256"
        }
      ],
      "name": "getChallengeReward",
      "outputs": [
        {
          "internalType": "uint256",
          "name": "reward",
          "type": "uint256"
        }
      ],
      "stateMutability": "view",
      "type": "function"
    },
    {
      "inputs": [
        {
          "internalType": "uint256",
          "name": "courseId",
          "type": "uint256"
        },
        {
          "internalType": "uint256",
          "name": "challengeId",
          "type": "uint256"
        },
        {
          "internalType": "address",
          "name": "studentAddress",
          "type": "address"
        }
      ],
      "name": "getStudentReward",
      "outputs": [
        {
          "internalType": "uint256",
          "name": "reward",
          "type": "uint256"
        }
      ],
      "stateMutability": "view",
      "type": "function"
    },
    {
      "inputs": [],
      "name": "status",
      "outputs": [
        {
          "internalType": "enum Totem.Status",
          "name": "",
          "type": "uint8"
        }
      ],
      "stateMutability": "view",
      "type": "function"
    },
    {
      "inputs": [
        {
          "internalType": "string",
          "name": "answer",
          "type": "string"
        },
        {
          "internalType": "uint256",
          "name": "courseId",
          "type": "uint256"
        },
        {
          "internalType": "uint256",
          "name": "challengeId",
          "type": "uint256"
        }
      ],
      "name": "submitChallenge",
      "outputs": [],
      "stateMutability": "nonpayable",
      "type": "function"
    },
    {
      "inputs": [
        {
          "internalType": "uint256",
          "name": "challengeId",
          "type": "uint256"
        },
        {
          "internalType": "uint256",
          "name": "courseId",
          "type": "uint256"
        },
        {
          "internalType": "uint256",
          "name": "score",
          "type": "uint256"
        },
        {
          "internalType": "address",
          "name": "studentAddress",
          "type": "address"
        }
      ],
      "name": "validateSubmit",
      "outputs": [],
      "stateMutability": "nonpayable",
      "type": "function"
    },
    {
      "inputs": [
        {
          "internalType": "bytes32",
          "name": "symbol",
          "type": "bytes32"
        },
        {
          "internalType": "address",
          "name": "tokenAddress",
          "type": "address"
        }
      ],
      "name": "whitelistTokens",
      "outputs": [],
      "stateMutability": "nonpayable",
      "type": "function"
    },
    {
      "inputs": [
        {
          "internalType": "bytes32",
          "name": "",
          "type": "bytes32"
        }
      ],
      "name": "whitelistedTokens",
      "outputs": [
        {
          "internalType": "address",
          "name": "",
          "type": "address"
        }
      ],
      "stateMutability": "view",
      "type": "function"
    },
    {
      "inputs": [
        {
          "internalType": "uint256",
          "name": "amount",
          "type": "uint256"
        },
        {
          "internalType": "bytes32",
          "name": "symbol",
          "type": "bytes32"
        }
      ],
      "name": "withdrawTokens",
      "outputs": [],
      "stateMutability": "nonpayable",
      "type": "function"
    }
  ],
  "bytecode": "0x608060405234801561001057600080fd5b50600160008190555033600760016101000a81548173ffffffffffffffffffffffffffffffffffffffff021916908373ffffffffffffffffffffffffffffffffffffffff16021790555061259f806100696000396000f3fe608060405234801561001057600080fd5b506004361061010b5760003560e01c806396f979d2116100a2578063cb88dc7911610071578063cb88dc79146102cc578063d15b223e14610302578063d7b011dc1461031e578063e64fe3661461033a578063f1c12be01461036a5761010b565b806396f979d21461022e5780639ce5db2614610264578063aa3d9a1514610280578063c49cf7f3146102b05761010b565b806335713e44116100de57806335713e44146101aa5780637f441f3f146101da57806384a70c72146101f65780638f97994b146102125761010b565b8063022e3d29146101105780631996afab1461012c5780631f4225871461015c578063200d2ed21461018c575b600080fd5b61012a600480360381019061012591906118b7565b610386565b005b61014660048036038101906101419190611955565b610666565b60405161015391906119b7565b60405180910390f35b610176600480360381019061017191906119d2565b6106d9565b60405161018391906119b7565b60405180910390f35b6101946106f1565b6040516101a19190611a76565b60405180910390f35b6101c460048036038101906101bf91906118b7565b610704565b6040516101d191906119b7565b60405180910390f35b6101f460048036038101906101ef91906118b7565b610739565b005b610210600480360381019061020b9190611a91565b6108a5565b005b61022c60048036038101906102279190611b07565b6109fd565b005b610248600480360381019061024391906119d2565b610b55565b60405161025b9796959493929190611c0a565b60405180910390f35b61027e60048036038101906102799190611c80565b610c6c565b005b61029a60048036038101906102959190611ce7565b610f74565b6040516102a79190611d14565b60405180910390f35b6102ca60048036038101906102c59190611e64565b610fa7565b005b6102e660048036038101906102e191906119d2565b61121f565b6040516102f99796959493929190611c0a565b60405180910390f35b61031c60048036038101906103179190611b07565b611346565b005b61033860048036038101906103339190611ed3565b611474565b005b610354600480360381019061034f9190611f13565b61155a565b60405161036191906119b7565b60405180910390f35b610384600480360381019061037f9190611f53565b61157f565b005b6002600381111561039a576103996119ff565b5b60046000838152602001908152602001600020600501600084815260200190815260200160002060000160003373ffffffffffffffffffffffffffffffffffffffff1673ffffffffffffffffffffffffffffffffffffffff16815260200190815260200160002060009054906101000a900460ff166003811115610421576104206119ff565b5b1461042b57600080fd5b600360046000838152602001908152602001600020600501600084815260200190815260200160002060000160003373ffffffffffffffffffffffffffffffffffffffff1673ffffffffffffffffffffffffffffffffffffffff16815260200190815260200160002060006101000a81548160ff021916908360038111156104b6576104b56119ff565b5b021790555060046000600854815260200190815260200160002060030160009054906101000a900473ffffffffffffffffffffffffffffffffffffffff1673ffffffffffffffffffffffffffffffffffffffff1663a9059cbb3360046000858152602001908152602001600020600501600086815260200190815260200160002060010160003373ffffffffffffffffffffffffffffffffffffffff1673ffffffffffffffffffffffffffffffffffffffff168152602001908152602001600020546040518363ffffffff1660e01b8152600401610595929190611fd6565b602060405180830381600087803b1580156105af57600080fd5b505af11580156105c3573d6000803e3d6000fd5b505050506040513d601f19601f820116820180604052508101906105e7919061202b565b503373ffffffffffffffffffffffffffffffffffffffff1681837fb94bf7f9302edf52a596286915a69b4b0685574cffdedd0712e3c62f2550f0ba6004600086815260200190815260200160002060050160008781526020019081526020016000206002015460405161065a91906119b7565b60405180910390a45050565b600060046000858152602001908152602001600020600501600084815260200190815260200160002060010160008373ffffffffffffffffffffffffffffffffffffffff1673ffffffffffffffffffffffffffffffffffffffff1681526020019081526020016000205490509392505050565b60016020528060005260406000206000915090505481565b600760009054906101000a900460ff1681565b600060046000848152602001908152602001600020600501600083815260200190815260200160002060020154905092915050565b3373ffffffffffffffffffffffffffffffffffffffff166004600084815260200190815260200160002060010160019054906101000a900473ffffffffffffffffffffffffffffffffffffffff1673ffffffffffffffffffffffffffffffffffffffff16146107dd576040517f08c379a00000000000000000000000000000000000000000000000000000000081526004016107d4906120ca565b60405180910390fd5b6001806000848152602001908152602001600020546107fc9190612119565b60016000848152602001908152602001600020819055508060046000848152602001908152602001600020600501600060016000868152602001908152602001600020548152602001908152602001600020600201819055508160016000848152602001908152602001600020547fa66162de8dd6d3138ebd5a7e3b16dd588d7c59eca2fd2af2f587900a5fa752ae8360405161089991906119b7565b60405180910390a35050565b3373ffffffffffffffffffffffffffffffffffffffff166004600083815260200190815260200160002060010160019054906101000a900473ffffffffffffffffffffffffffffffffffffffff1673ffffffffffffffffffffffffffffffffffffffff1614610949576040517f08c379a0000000000000000000000000000000000000000000000000000000008152600401610940906120ca565b60405180910390fd5b60016004600083815260200190815260200160002060040160008473ffffffffffffffffffffffffffffffffffffffff1673ffffffffffffffffffffffffffffffffffffffff16815260200190815260200160002060006101000a81548160ff0219169083151502179055508173ffffffffffffffffffffffffffffffffffffffff16817fe1cacc7bf04bbbc4acbefdd919648dda3da5378dfdd304a8bf8479ac92cb77e060405160405180910390a35050565b81600660003373ffffffffffffffffffffffffffffffffffffffff1673ffffffffffffffffffffffffffffffffffffffff1681526020019081526020016000206000838152602001908152602001600020541015610a90576040517f08c379a0000000000000000000000000000000000000000000000000000000008152600401610a87906121bb565b60405180910390fd5b6005600082815260200190815260200160002060009054906101000a900473ffffffffffffffffffffffffffffffffffffffff1673ffffffffffffffffffffffffffffffffffffffff1663a9059cbb33846040518363ffffffff1660e01b8152600401610afe929190611fd6565b602060405180830381600087803b158015610b1857600080fd5b505af1158015610b2c573d6000803e3d6000fd5b505050506040513d601f19601f82011682018060405250810190610b50919061202b565b505050565b6004602052806000526040600020600091509050806000018054610b789061220a565b80601f0160208091040260200160405190810160405280929190818152602001828054610ba49061220a565b8015610bf15780601f10610bc657610100808354040283529160200191610bf1565b820191906000526020600020905b815481529060010190602001808311610bd457829003601f168201915b5050505050908060010160009054906101000a900460ff16908060010160019054906101000a900473ffffffffffffffffffffffffffffffffffffffff16908060020154908060030160009054906101000a900473ffffffffffffffffffffffffffffffffffffffff16908060060154908060070154905087565b3373ffffffffffffffffffffffffffffffffffffffff166004600085815260200190815260200160002060010160019054906101000a900473ffffffffffffffffffffffffffffffffffffffff1673ffffffffffffffffffffffffffffffffffffffff1614610d10576040517f08c379a0000000000000000000000000000000000000000000000000000000008152600401610d07906120ca565b60405180910390fd5b60016003811115610d2457610d236119ff565b5b60046000858152602001908152602001600020600501600086815260200190815260200160002060000160008373ffffffffffffffffffffffffffffffffffffffff1673ffffffffffffffffffffffffffffffffffffffff16815260200190815260200160002060009054906101000a900460ff166003811115610dab57610daa6119ff565b5b14610db557600080fd5b600260046000858152602001908152602001600020600501600086815260200190815260200160002060000160008373ffffffffffffffffffffffffffffffffffffffff1673ffffffffffffffffffffffffffffffffffffffff16815260200190815260200160002060006101000a81548160ff02191690836003811115610e4057610e3f6119ff565b5b021790555060646004600085815260200190815260200160002060050160008681526020019081526020016000206002015483610e7d919061223c565b610e8791906122c5565b60046000858152602001908152602001600020600501600086815260200190815260200160002060010160008373ffffffffffffffffffffffffffffffffffffffff1673ffffffffffffffffffffffffffffffffffffffff168152602001908152602001600020819055508073ffffffffffffffffffffffffffffffffffffffff1683857f08454f250bc1189f1470fbd6a791d9c796d075494bbce876046f1b682421c66e856004600089815260200190815260200160002060050160008a815260200190815260200160002060020154604051610f669291906122f6565b60405180910390a450505050565b60056020528060005260406000206000915054906101000a900473ffffffffffffffffffffffffffffffffffffffff1681565b60016004600084815260200190815260200160002060040160003373ffffffffffffffffffffffffffffffffffffffff1673ffffffffffffffffffffffffffffffffffffffff16815260200190815260200160002060006101000a81548160ff0219169083151502179055611051576040517f08c379a000000000000000000000000000000000000000000000000000000000815260040161104890612391565b60405180910390fd5b600060046000848152602001908152602001600020600501600083815260200190815260200160002060020154116110be576040517f08c379a00000000000000000000000000000000000000000000000000000000081526004016110b5906123fd565b60405180910390fd5b600160046000848152602001908152602001600020600501600083815260200190815260200160002060000160003373ffffffffffffffffffffffffffffffffffffffff1673ffffffffffffffffffffffffffffffffffffffff16815260200190815260200160002060006101000a81548160ff02191690836003811115611149576111486119ff565b5b02179055508260046000848152602001908152602001600020600501600083815260200190815260200160002060040160003373ffffffffffffffffffffffffffffffffffffffff1673ffffffffffffffffffffffffffffffffffffffff16815260200190815260200160002090805190602001906111c99291906117ca565b503373ffffffffffffffffffffffffffffffffffffffff1681837f0652388f4a0089803cd083e5f18ba025e805a427fc7522abed8ab6b52d36618e86604051611212919061241d565b60405180910390a4505050565b600a818154811061122f57600080fd5b90600052602060002090600802016000915090508060000180546112529061220a565b80601f016020809104026020016040519081016040528092919081815260200182805461127e9061220a565b80156112cb5780601f106112a0576101008083540402835291602001916112cb565b820191906000526020600020905b8154815290600101906020018083116112ae57829003601f168201915b5050505050908060010160009054906101000a900460ff16908060010160019054906101000a900473ffffffffffffffffffffffffffffffffffffffff16908060020154908060030160009054906101000a900473ffffffffffffffffffffffffffffffffffffffff16908060060154908060070154905087565b81600660003373ffffffffffffffffffffffffffffffffffffffff1673ffffffffffffffffffffffffffffffffffffffff168152602001908152602001600020600083815260200190815260200160002060008282546113a69190612119565b925050819055506005600082815260200190815260200160002060009054906101000a900473ffffffffffffffffffffffffffffffffffffffff1673ffffffffffffffffffffffffffffffffffffffff166323b872dd3330856040518463ffffffff1660e01b815260040161141d9392919061243f565b602060405180830381600087803b15801561143757600080fd5b505af115801561144b573d6000803e3d6000fd5b505050506040513d601f19601f8201168201806040525081019061146f919061202b565b505050565b600760019054906101000a900473ffffffffffffffffffffffffffffffffffffffff1673ffffffffffffffffffffffffffffffffffffffff163373ffffffffffffffffffffffffffffffffffffffff1614611504576040517f08c379a00000000000000000000000000000000000000000000000000000000081526004016114fb906124c2565b60405180910390fd5b806005600084815260200190815260200160002060006101000a81548173ffffffffffffffffffffffffffffffffffffffff021916908373ffffffffffffffffffffffffffffffffffffffff1602179055505050565b6006602052816000526040600020602052806000526040600020600091509150505481565b8073ffffffffffffffffffffffffffffffffffffffff166323b872dd3330856040518463ffffffff1660e01b81526004016115bc9392919061243f565b602060405180830381600087803b1580156115d657600080fd5b505af11580156115ea573d6000803e3d6000fd5b505050506040513d601f19601f8201168201806040525081019061160e919061202b565b5060086000815480929190611622906124e2565b91905055508360046000600854815260200190815260200160002060000190805190602001906116539291906117ca565b50600160046000600854815260200190815260200160002060010160006101000a81548160ff0219169083151502179055508260046000600854815260200190815260200160002060010160016101000a81548173ffffffffffffffffffffffffffffffffffffffff021916908373ffffffffffffffffffffffffffffffffffffffff16021790555081600460006008548152602001908152602001600020600201819055508060046000600854815260200190815260200160002060030160006101000a81548173ffffffffffffffffffffffffffffffffffffffff021916908373ffffffffffffffffffffffffffffffffffffffff160217905550600854600460006008548152602001908152602001600020600701819055506008548373ffffffffffffffffffffffffffffffffffffffff167f81492c82ff72a147087ca6d664f3578619a358629830f78af1a7decebe13b5438685856040516117bc9392919061252b565b60405180910390a350505050565b8280546117d69061220a565b90600052602060002090601f0160209004810192826117f8576000855561183f565b82601f1061181157805160ff191683800117855561183f565b8280016001018555821561183f579182015b8281111561183e578251825591602001919060010190611823565b5b50905061184c9190611850565b5090565b5b80821115611869576000816000905550600101611851565b5090565b6000604051905090565b600080fd5b600080fd5b6000819050919050565b61189481611881565b811461189f57600080fd5b50565b6000813590506118b18161188b565b92915050565b600080604083850312156118ce576118cd611877565b5b60006118dc858286016118a2565b92505060206118ed858286016118a2565b9150509250929050565b600073ffffffffffffffffffffffffffffffffffffffff82169050919050565b6000611922826118f7565b9050919050565b61193281611917565b811461193d57600080fd5b50565b60008135905061194f81611929565b92915050565b60008060006060848603121561196e5761196d611877565b5b600061197c868287016118a2565b935050602061198d868287016118a2565b925050604061199e86828701611940565b9150509250925092565b6119b181611881565b82525050565b60006020820190506119cc60008301846119a8565b92915050565b6000602082840312156119e8576119e7611877565b5b60006119f6848285016118a2565b91505092915050565b7f4e487b7100000000000000000000000000000000000000000000000000000000600052602160045260246000fd5b60048110611a3f57611a3e6119ff565b5b50565b6000819050611a5082611a2e565b919050565b6000611a6082611a42565b9050919050565b611a7081611a55565b82525050565b6000602082019050611a8b6000830184611a67565b92915050565b60008060408385031215611aa857611aa7611877565b5b6000611ab685828601611940565b9250506020611ac7858286016118a2565b9150509250929050565b6000819050919050565b611ae481611ad1565b8114611aef57600080fd5b50565b600081359050611b0181611adb565b92915050565b60008060408385031215611b1e57611b1d611877565b5b6000611b2c858286016118a2565b9250506020611b3d85828601611af2565b9150509250929050565b600081519050919050565b600082825260208201905092915050565b60005b83811015611b81578082015181840152602081019050611b66565b83811115611b90576000848401525b50505050565b6000601f19601f8301169050919050565b6000611bb282611b47565b611bbc8185611b52565b9350611bcc818560208601611b63565b611bd581611b96565b840191505092915050565b60008115159050919050565b611bf581611be0565b82525050565b611c0481611917565b82525050565b600060e0820190508181036000830152611c24818a611ba7565b9050611c336020830189611bec565b611c406040830188611bfb565b611c4d60608301876119a8565b611c5a6080830186611bfb565b611c6760a08301856119a8565b611c7460c08301846119a8565b98975050505050505050565b60008060008060808587031215611c9a57611c99611877565b5b6000611ca8878288016118a2565b9450506020611cb9878288016118a2565b9350506040611cca878288016118a2565b9250506060611cdb87828801611940565b91505092959194509250565b600060208284031215611cfd57611cfc611877565b5b6000611d0b84828501611af2565b91505092915050565b6000602082019050611d296000830184611bfb565b92915050565b600080fd5b600080fd5b7f4e487b7100000000000000000000000000000000000000000000000000000000600052604160045260246000fd5b611d7182611b96565b810181811067ffffffffffffffff82111715611d9057611d8f611d39565b5b80604052505050565b6000611da361186d565b9050611daf8282611d68565b919050565b600067ffffffffffffffff821115611dcf57611dce611d39565b5b611dd882611b96565b9050602081019050919050565b82818337600083830152505050565b6000611e07611e0284611db4565b611d99565b905082815260208101848484011115611e2357611e22611d34565b5b611e2e848285611de5565b509392505050565b600082601f830112611e4b57611e4a611d2f565b5b8135611e5b848260208601611df4565b91505092915050565b600080600060608486031215611e7d57611e7c611877565b5b600084013567ffffffffffffffff811115611e9b57611e9a61187c565b5b611ea786828701611e36565b9350506020611eb8868287016118a2565b9250506040611ec9868287016118a2565b9150509250925092565b60008060408385031215611eea57611ee9611877565b5b6000611ef885828601611af2565b9250506020611f0985828601611940565b9150509250929050565b60008060408385031215611f2a57611f29611877565b5b6000611f3885828601611940565b9250506020611f4985828601611af2565b9150509250929050565b60008060008060808587031215611f6d57611f6c611877565b5b600085013567ffffffffffffffff811115611f8b57611f8a61187c565b5b611f9787828801611e36565b9450506020611fa887828801611940565b9350506040611fb9878288016118a2565b9250506060611fca87828801611940565b91505092959194509250565b6000604082019050611feb6000830185611bfb565b611ff860208301846119a8565b9392505050565b61200881611be0565b811461201357600080fd5b50565b60008151905061202581611fff565b92915050565b60006020828403121561204157612040611877565b5b600061204f84828501612016565b91505092915050565b7f596f75277265206e6f74207468652070726f666573736f72206f66207468697360008201527f20436f7572736500000000000000000000000000000000000000000000000000602082015250565b60006120b4602783611b52565b91506120bf82612058565b604082019050919050565b600060208201905081810360008301526120e3816120a7565b9050919050565b7f4e487b7100000000000000000000000000000000000000000000000000000000600052601160045260246000fd5b600061212482611881565b915061212f83611881565b9250827fffffffffffffffffffffffffffffffffffffffffffffffffffffffffffffffff03821115612164576121636120ea565b5b828201905092915050565b7f496e73756666696369656e742066756e64730000000000000000000000000000600082015250565b60006121a5601283611b52565b91506121b08261216f565b602082019050919050565b600060208201905081810360008301526121d481612198565b9050919050565b7f4e487b7100000000000000000000000000000000000000000000000000000000600052602260045260246000fd5b6000600282049050600182168061222257607f821691505b60208210811415612236576122356121db565b5b50919050565b600061224782611881565b915061225283611881565b9250817fffffffffffffffffffffffffffffffffffffffffffffffffffffffffffffffff048311821515161561228b5761228a6120ea565b5b828202905092915050565b7f4e487b7100000000000000000000000000000000000000000000000000000000600052601260045260246000fd5b60006122d082611881565b91506122db83611881565b9250826122eb576122ea612296565b5b828204905092915050565b600060408201905061230b60008301856119a8565b61231860208301846119a8565b9392505050565b7f41646472657373206e6f7420612073747564656e74206f66207468697320436f60008201527f7572736500000000000000000000000000000000000000000000000000000000602082015250565b600061237b602483611b52565b91506123868261231f565b604082019050919050565b600060208201905081810360008301526123aa8161236e565b9050919050565b7f4368616c6c656e676520646f65736e7420457869737400000000000000000000600082015250565b60006123e7601683611b52565b91506123f2826123b1565b602082019050919050565b60006020820190508181036000830152612416816123da565b9050919050565b600060208201905081810360008301526124378184611ba7565b905092915050565b60006060820190506124546000830186611bfb565b6124616020830185611bfb565b61246e60408301846119a8565b949350505050565b7f546869732066756e6374696f6e206973206e6f74207075626c69630000000000600082015250565b60006124ac601b83611b52565b91506124b782612476565b602082019050919050565b600060208201905081810360008301526124db8161249f565b9050919050565b60006124ed82611881565b91507fffffffffffffffffffffffffffffffffffffffffffffffffffffffffffffffff8214156125205761251f6120ea565b5b600182019050919050565b600060608201905081810360008301526125458186611ba7565b905061255460208301856119a8565b6125616040830184611bfb565b94935050505056fea264697066735822122015c434f5e08c05daced361fa0084c9969bb22fae8386afdf897eb23382ee8a2c64736f6c63430008090033",
  "linkReferences": {},
  "deployedLinkReferences": {}
}